:020000040800F2
:100000008067002015020008190200081B02000882
:100010001D0200081F020008210200080000000065
:1000200000000000000000000000000023020008A3
:10003000250200080000000027020008290200082D
:100040002B0200082B0200082B0200082B020008DC
:100050002B0200082B0200082B0200082B020008CC
:100060002B0200082B0200082B0200082B020008BC
:100070002B0200082B0200082B0200082B020008AC
:100080002B0200082B0200082B0200082B0200089C
:100090002B0200082B0200082B020008151700088D
:1000A0002B0200082B0200082B0200082B0200087C
:1000B0002B020008216C00082B0200082B0200080C
:1000C0002B0200082B0200082B0200082B0200085C
:1000D0002B020008DD6C00082B0200082B02000830
:1000E000811600082B0200082B0200082B020008D2
:1000F0002B0200082B0200082B0200082B0200082C
:100100002B0200082B0200082B0200082B0200081B
:100110002B0200082B0200082B0200082B0200080B
:100120002B0200082B0200082B0200082B020008FB
:1001300000F002F800F05EF80AA090E8000C82449B
:100140008344AAF10107DA4501D100F053F8AFF278
:10015000090EBAE80F0013F0010F18BFFB1A43F0A5
:1001600001031847549800007498000010F8013BF0
:100170000A4413F0030408BF10F8014B1D1108BF17
:1001800010F8015B641E05D010F8016B641E01F8C5
:10019000016BF9D1002D15D010F8014B03F00C03C1
:1001A0000C2BA1EB04040ABF10F8013BA4EB831451
:1001B000A4EB032405F1010314F8016B5B1E01F8A5
:1001C000016BF9D5914238BF10F8013BD1D370478C
:1001D0000023002400250026103A28BF78C1FBD850
:1001E000520728BF30C148BF0B6070471FB51FBD05
:1001F00010B510BD01F06EF91146FFF7F7FF06F0DC
:100200009DFF01F0A0F903B4FFF7F2FF03BC06F075
:10021000A7FD000008480047FEE7FEE7FEE7FEE70F
:10022000FEE7FEE7FEE7FEE7FEE7FEE703480449D8
:10023000044A054B7047000031010008806100202E
:100240008067002080630020806300202DE9F04F4C
:100250004FF0000C4FF0000301EB9C5EBEF9025022
:10026000BEF900400EF5806EBEF90290BEF9008026
:100270000EF5806EBEF90270BEF900600EF5806E5C
:10028000BEF902B0BEF900A00EF5806ED044D9448C
:10029000A8EB4A0AA9EB4B0B4FEAA4044FEAA505C9
:1002A00004EBA60405EBA705A4EB6606A5EB670720
:1002B00004EBA80405EBA905A4EB6808A5EB690904
:1002C00006EBAB06A7EBAA07A6EB6B0B07EB6A0ADC
:1002D000458020F8044B478020F8046BA0F802907A
:1002E00020F8048BA0F802A020F804BB03F101035E
:1002F00093FAA3FCB3F5807FAED1A0EB82014FF05F
:10030000100312090FF2341000F1000006B403EBE1
:10031000430C6144A2F5803202EB8332B1F9025002
:10032000B1F90040A1EB0301B0F902B0B0F900A0AF
:1003300000F10400A5EB040E0EFB0BFC0AEB4B0EC8
:1003400005FB0ACB04FB0ECAB1F90250B1F900401B
:10035000A1EB0301B0F90290B0F9008000F10400B4
:10036000A5EB040E0EFB09FC08EB490E05FB08C9C2
:1003700004FB0EC8B1F90250B1F90040A1EB030132
:10038000B0F90270B0F9006000F10400A5EB040EB2
:100390000EFB07FC06EB470E05FB06C704FB0EC66B
:1003A000B1F90250B1F9004001F10001D044D94443
:1003B000A8EB4A0AA9EB4B0B4FEAA4044FEAA505A8
:1003C00004EB264405EB2745A4EBE636A5EBE7371F
:1003D00004EB284405EB2945A4EBE838A5EBE93903
:1003E00006EB2B46A7EB2A47A6EBEB3B07EBEA3ADB
:1003F0004D800C8019444F800E801944A1F8029062
:10040000A1F800801944A1F802A021F804BBB2F5BC
:10041000803283DA03EB430C6144A2F101025FEA0C
:10042000024E18BFA0EB0C007FF476AF06BC4FEA7B
:10043000830392087FF46AAFBDE8F08F00400000AC
:1004400000400000004000005DDD213BA3227E183B
:100450000000412D7EA5412D0000412D00C000402F
:100460005DDD82E75DDD213B7EA5412D0040000082
:100470000040000000400000AA2A94126B39460692
:1004800049327C0CA8118E2349327C0CA3227E18A1
:1004900021F77931AA2A9412A8118E235DDD213B20
:1004A000A3227E180000412D95C6B13F461A2B1E8F
:1004B00058EE3735BEB4C53EA8118E235DDD213B15
:1004C00063A97138DF089A28B7CDC53E7EA5412DB6
:1004D0000000412D00C0004063A92B1E21F7793197
:1004E000BEB4C53EBEB47C0C58EE373561AC213B82
:1004F00095C6BAF9BAE571383BA737355DDD82E7B5
:100500005DDD213B7EA5412D21F766D756D53F3DC8
:100510003BA78E23A811C9CAB7CDC53E61AC7E18D2
:10052000AA2AC1C295C6B13FBEB47C0C00400000EF
:1005300000400000004000001E3BB504693E9201EF
:10054000C83C2403EB356409C83C24036B394606D8
:100550006C30060E1E3BB504EB356409AA2A9412D2
:100560006B39460649327C0CAE240917AF37D607E3
:10057000882E8D0F7E1E5D1BEB356409AA2A94120E
:1005800024188C1F1E34F10AB3269015A8118E234F
:1005900049327C0CA3227E18140B60276C30060EA7
:1005A0007E1E5D1B7104FB2A882E8D0F461A2B1EA2
:1005B000C7FD5A2E9D2C1211FE15E72021F7793127
:1005C000AA2A9412A8118E2387F05334B228131448
:1005D000480D202602EAE536B3269015DF089A2852
:1005E0009CE32B39AE2409177104FB2A5DDD213B06
:1005F000A3227E180000412D4ED7C53C9320EF1951
:100600008FFB6C2F78D1153E7E1E5D1B21F7793153
:10061000E2CB0F3F641CC61CB8F2683395C6B13FED
:10062000461A2B1E58EE373597C1FB3F24188C1FF6
:1006300002EAE536F0BCEC3FFE15E720BAE571387A
:10064000A6B8853FD5133D2282E1DB39BEB4C53E55
:10065000A8118E235DDD213B40B1AF3D790FDA2437
:100660004DD9423C2EAE423C480D202656D53F3D4A
:100670008EAB823A140B602778D1153E63A971388E
:10068000DF089A28B7CDC53EB1A71236A906CE29F4
:1006900015CA4F3F78A668337104FB2A95C6B13F4F
:1006A000BCA576303902212C38C3EC3F7EA5412D04
:1006B0000000412D00C00040BCA5CE29C7FD5A2E28
:1006C000F0BCEC3F78A620268FFB6C2F09BAB13F17
:1006D000B1A73D2257F976304DB74F3F63A92B1E86
:1006E00021F77931BEB4C53E8EABEF19ECF474320C
:1006F0005EB2153E2EAE9015B8F268332DB03F3D78
:1007000040B1121187F053342EAE423CBEB47C0C83
:1007100058EE373561AC213BA6B8D6072BEC123624
:10072000C8AADB39F0BC240302EAE53663A97138B4
:1007300097C16EFEDCE7B03734A8E53695C6BAF946
:10074000BAE571383BA73735E2CB0FF59CE32B397F
:1007500078A6683378D173F082E1DB39EDA5793181
:100760004ED7EDEB6DDF823A99A56C2F5DDD82E708
:100770005DDD213B7EA5412D9CE33AE352DBB63B98
:1007800099A5FB2A02EA19DF4DD9423CEDA59A282A
:1007900087F026DB4ED7C53C78A6202621F766D702
:1007A00056D53F3D3BA78E23C7FDDFD363D3AF3D77
:1007B00034A8E720710494D078D1153E63A92B1E8C
:1007C000140B8CCD94CF723EC8AA5D1BA811C9CA68
:1007D000B7CDC53E61AC7E18241850C8E2CB0F3FA0
:1007E0002EAE90157E1E25C615CA4F3F2DB0941211
:1007F000AE244AC451C8853F5EB28D0FAA2AC1C239
:1008000095C6B13FBEB47C0C6C308EC1E2C4D43FFF
:100810004DB76409EB35B1C038C3EC3F09BA4606A1
:100820001E3B2CC097C1FB3FF0BC240300400000DE
:100830000040000000400000D03E2E019B3F6500BC
:10084000363FC9009A3D5B02363FC900693E9201BE
:100850005F3C8803D03E2E019A3D5B021E3BB504EF
:10086000693E9201C83C2403D939E205023EF701F2
:10087000F43BED038E380E079A3D5B021E3BB50438
:100880003F373908313DC002463A7E05EB356409F1
:10089000C83C24036B39460692348E0A5F3C8803B9
:1008A0008E380E073433B70BF43BED03AF37D60762
:1008B000D231DF0C8A3B5104CE369D086C30060ED7
:1008C0001E3BB504EB356409022F2B0FB23A1A0513
:1008D00005352B0A932D5010463A7E051E34F10A39
:1008E000212C7311D939E2053433B70BAA2A94129B
:1008F0006B39460649327C0C3129B413FD38AA06FF
:100900005B31410DB327D2148E380E076C30060EC2
:100910003226EE151F3872077B2FCA0EAE24091738
:10092000AF37D607882E8D0F262321183F37390879
:10093000932D50109C213719CE369D089D2C1211F5
:100940000E204B1A5D360109A42BD3117E1E5D1BB0
:10095000EB356409AA2A9412EB1C6C1C7835C70984
:10096000AF295413561B791D05352B0AB2281314D1
:10097000BE19841E92348E0AB327D21424188C1FF9
:100980001E34F10AB326901588169120A933540B12
:10099000B1254C16EA1493213433B70BAE24091752
:1009A0004A139222BF321A0CA923C417A8118E230E
:1009B00049327C0CA3227E1805108824D231DF0C2A
:1009C0009C213719610E7E255B31410D9320EF1973
:1009D000BB0C7126E430A40D891FA71A140B6027E5
:1009E0006C30060E7E1E5D1B6D094C28F42F680EC0
:1009F000721D121CC40735297B2FCA0E641CC61C2D
:100A00001B061A2A022F2B0F561B791D7104FB2A75
:100A1000882E8D0F461A2B1EC702D82B0E2EEE0FD6
:100A20003519DC1E1C01B22C932D501024188C1F7C
:100A300072FF882D182DB11011173A20C7FD5A2EBC
:100A40009D2C1211FE15E7201DFC282F212C73115F
:100A5000EA14932173FAF22FA42BD311D5133D225C
:100A6000CAF8B830282B3412BF12E72221F77931A7
:100A7000AA2A9412A8118E2379F536322D2AF4125F
:100A800091103524D2F3EF32AF295413790FDA24C1
:100A90002CF2A3333129B413610E7E2587F0533431
:100AA000B2281314480D2026E3EEFF3433287314C4
:100AB0002E0CC12641EDA535B327D214140B6027A7
:100AC000A1EB483633273115FA09FE2702EAE5364D
:100AD000B3269015DF089A2865E87E373226EE1592
:100AE000C4073529CBE61238B1254C16A906CE2904
:100AF00032E5A1382F25AB168D05652A9CE32B39ED
:100B0000AE2409177104FB2A08E2B0392B246617BA
:100B100055038F2B77E0303AA923C4173902212CD3
:100B2000E9DEAB3A262321181C01B22C5DDD213B06
:100B3000A3227E180000412DD5DB923B1F22DB183B
:100B4000E4FECF2D4FDAFD3B9C213719C7FD5A2E0D
:100B5000CDD8643C17219319ABFCE42E4ED7C53C8D
:100B60009320EF198FFB6C2FD3D5213D0E204B1A0C
:100B700073FAF22F5CD4783D891FA71A57F97630A3
:100B8000E8D2C93D041F021B3CF8F93078D1153E6C
:100B90007E1E5D1B21F779310CD05C3EF81DB81B21
:100BA00006F6F831A5CE9D3E721D121CECF474328F
:100BB00041CDD83EEB1C6C1CD2F3EF32E2CB0F3FA1
:100BC000641CC61CB8F2683388CA403FDD1B201D78
:100BD0009FF1DF3332C96B3F561B791D87F05334C9
:100BE000E1C7913FCE1AD31D6FEFC63495C6B13F12
:100BF000461A2B1E58EE37354EC5CC3FBE19841E03
:100C000041EDA5350CC4E13F3519DC1E2BEC123645
:100C1000CFC2F13FAD18341F16EB7D3697C1FB3FB5
:100C200024188C1F02EAE53665C000409B17E31FBD
:100C3000EFE84B3738BFFF3F11173A20DCE7B037FA
:100C400011BEF83F88169120CBE61238F0BCEC3F7D
:100C5000FE15E720BAE57138D4BBDB3F74153D21A2
:100C6000AAE4CF38BFBAC43FEA1493219CE32B39DE
:100C7000AFB9A73F5F14E8218EE28439A6B8853F5B
:100C8000D5133D2282E1DB39A2B75D3F4A139222A0
:100C900077E0303AA5B6303FBF12E7226DDF823AE7
:100CA000AFB5FD3E34123B2364DED33ABEB4C53E3D
:100CB000A8118E235DDD213BD5B3883E1D11E223B3
:100CC00057DC6D3BF2B2453E9110352452DBB63B0A
:100CD00015B2FC3D051088244FDAFD3B40B1AF3D15
:100CE000790FDA244DD9423C71B05B3DED0E2C25D5
:100CF0004DD8853CA9AF033D610E7E254ED7C53C3E
:100D0000E8AEA53CD40DCF2551D6033D2EAE423CD6
:100D1000480D202656D53F3D7BADDA3BBB0C7126F6
:100D20005CD4783DD0AC6D3B2E0CC12663D3AF3D77
:100D30002BACFA3AA10B11276DD2E33D8EAB823A70
:100D4000140B602778D1153EF8AA063A870AAF2718
:100D500085D0453E6AAA8439FA09FE2794CF723EAF
:100D6000E3A9FD386D094C28A5CE9D3E63A97138D5
:100D7000DF089A28B7CDC53EEBA8E1375208E7282F
:100D8000CCCCEB3E7BA84B37C4073529E2CB0F3FD9
:100D900012A8B13636078129FBCA303FB1A71236F7
:100DA000A906CE2915CA4F3F57A76E351B061A2A2A
:100DB00032C96B3F05A7C6348D05652A51C8853FEA
:100DC000BBA61934FF04B02A72C79C3F78A66833CB
:100DD0007104FB2A95C6B13F3EA6B232E303452B10
:100DE000BAC5C43F0BA6F83155038F2BE2C4D43FDC
:100DF000E0A53931C702D82B0CC4E13FBCA5763041
:100E00003902212C38C3EC3FA1A5AF2FAA016A2CCF
:100E100066C2F53F8DA5E42E1C01B22C97C1FB3FA5
:100E200081A5152E8E00FA2CCAC0FF3F7EA5412D4C
:100E30000000412D00C0004081A56A2C72FF882D62
:100E400038BFFF3F8DA58F2BE4FECF2D73BEFB3F38
:100E5000A1A5B02A56FE152EB0BDF53FBCA5CE29E2
:100E6000C7FD5A2EF0BCEC3FE0A5E72839FD9F2EC8
:100E700032BCE13F0BA6FE27ABFCE42E77BBD43F90
:100E80003EA611271DFC282FBFBAC43F78A62026F6
:100E90008FFB6C2F09BAB13FBBA62C2501FBAF2FEE
:100EA00056B99C3F05A7352473FAF22FA6B8853FA3
:100EB00057A73B23E5F93430F8B76B3FB1A73D2284
:100EC00057F976304DB74F3F12A83D21CAF8B830D8
:100ED000A5B6303F7BA83A203CF8F93000B60F3F6A
:100EE000EBA8341FAEF739315EB5EB3E63A92B1E7C
:100EF00021F77931BEB4C53EE3A9201D93F6B9317F
:100F000022B49D3E6AAA121C06F6F83188B3723EDE
:100F1000F8AA021B79F53632F2B2453E8EABEF19D4
:100F2000ECF474325EB2153E2BACDB185FF4B232D7
:100F3000CDB1E33DD0ACC417D2F3EF3240B1AF3DF9
:100F40007BADAB1645F32C33B5B0783D2EAE901586
:100F5000B8F268332DB03F3DE8AE73142CF2A333E2
:100F6000A9AF033DA9AF54139FF1DF3328AFC53CB0
:100F700071B0341213F11934A9AE853C40B112118D
:100F800087F053342EAE423C15B2EE0FFBEF8D349A
:100F9000B6ADFD3BF2B2CA0E6FEFC63441ADB63B03
:100FA000D5B3A40DE3EEFF34D0AC6D3BBEB47C0CE6
:100FB00058EE373561AC213BAFB5540BCCED6E35F7
:100FC000F6ABD33AA5B62B0A41EDA5358EAB823AE6
:100FD000A2B70109B6ECDC3529AB303AA6B8D60782
:100FE0002BEC1236C8AADB39AFB9AA06A1EB4836FA
:100FF0006AAA8439BFBA7E0516EB7D360FAA2B3953
:10100000D4BB51048CEAB136B7A9CF38F0BC240365
:1010100002EAE53663A9713811BEF70178E918379D
:1010200012A9123838BFC900EFE84B37C5A8B0374E
:1010300065C09BFF65E87E377BA84B3797C16EFE86
:10104000DCE7B03734A8E536CFC240FD53E7E137DF
:10105000F1A77D360CC413FCCBE61238B1A71236CB
:101060004EC5E6FA42E6423874A7A53595C6BAF9E8
:10107000BAE571383BA73735E1C78EF832E5A138BC
:1010800005A7C63432C963F7AAE4CF38D3A65334D0
:1010900088CA39F623E4FD38A4A6DF33E2CB0FF586
:1010A0009CE32B3978A6683341CDE6F315E3583934
:1010B00050A6EF32A5CEBFF28EE284392CA6743250
:1010C0000CD098F108E2B0390BA6F83178D173F062
:1010D00082E1DB39EDA57931E8D24FEFFCE0063A49
:1010E000D3A5F9305CD42DEE77E0303ABCA576304C
:1010F000D3D50CEDF2DF593AA9A5F22F4ED7EDEB7F
:101100006DDF823A99A56C2FCDD8CFEAE9DEAB3AF4
:101110008DA5E42E4FDAB4E964DED33A85A55A2EC4
:10112000D5DB9AE8E1DDFA3A7FA5CF2D5DDD82E7D8
:101130005DDD213B7EA5412DE9DE6DE6DADC473B36
:101140007FA5B22C77E059E557DC6D3B85A5212CB6
:1011500008E248E4D5DB923B8DA58F2B9CE33AE374
:1011600052DBB63B99A5FB2A32E52DE2D1DADA3B18
:10117000A9A5652ACBE624E14FDAFD3BBCA5CE2923
:1011800065E81DE0CED9203CD3A5352902EA19DF58
:101190004DD9423CEDA59A28A1EB18DECDD8643C90
:1011A0000BA6FE2741ED19DD4DD8853C2CA6602706
:1011B000E3EE1EDCCDD7A53C50A6C12687F026DB8A
:1011C0004ED7C53C78A620262CF231DACFD6E43CA7
:1011D000A4A67E25D2F33FD951D6033DD3A6DA2467
:1011E00079F551D8D3D5213D05A7352421F766D708
:1011F00056D53F3D3BA78E23CAF87FD6D8D45B3D5A
:1012000074A7E72273FA9BD55CD4783DB1A73D2241
:101210001DFCBBD4DFD3933DF1A79321C7FDDFD3E2
:1012200063D3AF3D34A8E72072FF06D3E8D2C93DAF
:101230007BA83A201C0131D26DD2E33DC5A88C1F9A
:10124000C70261D1F2D1FC3D12A9DC1E710494D019
:1012500078D1153E63A92B1E1B06CCCFFED02D3EA8
:10126000B7A9791DC40707CF85D0453E0FAAC61C74
:101270006D0947CE0CD05C3E6AAA121C140B8CCDB3
:1012800094CF723EC8AA5D1BBB0CD4CC1CCF883E49
:1012900029ABA71A610E21CCA5CE9D3E8EABEF19CE
:1012A000051073CB2ECEB13EF6AB3719A811C9CAC3
:1012B000B7CDC53E61AC7E184A1324CA41CDD83E95
:1012C000D0ACC417EA1483C9CCCCEB3E41AD0917AE
:1012D0008816E8C857CCFD3EB6AD4C16241850C849
:1012E000E2CB0F3F2EAE9015BE19BEC76ECB203F8E
:1012F000A9AED214561B31C7FBCA303F28AF131416
:10130000EB1CA8C688CA403FA9AF54137E1E25C651
:1013100015CA4F3F2DB094120E20A7C5A3C95D3F3B
:10132000B5B0D3119C212DC532C96B3F40B112110C
:101330002623B9C4C1C8783FCDB15010AE244AC4E9
:1013400051C8853F5EB28D0F3226E0C3E1C7913FA1
:10135000F2B2CA0EB3277BC372C79C3F88B3060E96
:1013600031291CC303C7A73F22B4410DAA2AC1C219
:1013700095C6B13FBEB47C0C212C6DC227C6BB3FC5
:101380005EB5B70B932D1DC2BAC5C43F00B6F10AB6
:10139000022FD3C14EC5CC3FA5B62B0A6C308EC1EF
:1013A000E2C4D43F4DB76409D2314FC176C4DB3FAC
:1013B000F8B79D08343315C10CC4E13FA6B8D60771
:1013C0009234E0C0A1C3E73F56B90E07EB35B1C078
:1013D00038C3EC3F09BA46063F3788C0CFC2F13F59
:1013E000BFBA7E058E3864C066C2F53F77BBB504D0
:1013F000D93945C0FEC1F83F32BCED031E3B2CC0BD
:1014000097C1FB3FF0BC24035F3C19C030C1FD3FD6
:10141000B0BD5B029A3D0BC0CAC0FF3F73BE9201D4
:10142000D03E03C065C0004038BFC900704700000F
:101430000FB4044910B503AA029800F015F810BCC7
:101440005DF814FB3C1000207047704770477047F0
:1014500010B500F01BF8006810BD10B5044600F090
:1014600015F8046010BD0000074B70B50D467B44B5
:1014700000F015F80446284600F024F810B14FF0AB
:10148000FF3070BD204670BD1B5B000000487047F8
:101490002061002001694A1C02610878704700B58C
:1014A0008FB0CDE901310021059105497944CDE99D
:1014B00003101146684600F032F80FB000BD00007E
:1014C000E5FFFFFF007B00F0800070470048704799
:1014D000206100207546FFF7F9FFAE46050069461A
:1014E000534620F00700854618B020B5FEF79EFE53
:1014F000BDE820404FF000064FF000074FF0000815
:101500004FF0000B21F00701AC46ACE8C009ACE895
:10151000C009ACE8C009ACE8C0098D4670472DE9A8
:10152000F04106460024D6E90170F5688046304651
:1015300003E04146B847641C3046A8470028F8D16C
:101540002046BDE8F08110B50446AFF30080204688
:10155000BDE81040FEF757BE4548806940F00400E2
:10156000434988614348006820F0F0004149086021
:101570003F48806940F400703D4988610846C06872
:1015800040F40070C8600846C06820F40070C8606D
:101590000846406820F4404048600846406840F4EF
:1015A00000404860344800683449084032490860C7
:1015B0000846006808600846006820F480700860EB
:1015C000081D006820F00200091D08600846006838
:1015D00020F4602008600846006840F4602008603D
:1015E0000846006840F4801008600846006820F44F
:1015F0000060086020482830006820F470001E4910
:10160000283108600846006808601B480C300068F4
:1016100020F0380018490C3108600846006840F096
:10162000380008601448001D006840F001001249AD
:10163000091D08600846006840F00800086000BF07
:101640000D48001D006800F008000028F8D10A4885
:10165000001D006840F004000749091D086000BF34
:101660000548001D006800F004000028F8D170470C
:10167000001002400008014004240140FFFFF00078
:101680001CB50A2005F046FC1A48006868BB1A48D9
:101690000078012815D1194800884FF6FE710840DE
:1016A0001649088000201449087015A010210B4627
:1016B000C822CDE900106E214FF4827005F02AF99E
:1016C00013E00E48008840F001000C49088001201A
:1016D000094908700CA010210B46C822CDE9001062
:1016E0006E214FF4827005F015F94FF4004008495F
:1016F00008601CBD3C01214216100020000400407F
:1017000053544F5020200000696E672E2E2E00008B
:101710001404014008B50A2005F0FCFB36480068B7
:10172000002864D11F203549088035480078401CC6
:101730003349087008460078012810D164203149E7
:1017400008800A20304908801020042300900846B1
:101750000288DC214FF4827005F092F842E02848BC
:101760000078022810D10A202649088064202649E2
:10177000088010200423009008460288DC214FF4E2
:10178000827005F07DF82DE01D480078032811D106
:1017900002201C4908804FF4FA701B490880102071
:1017A0000423009008460288DC214FF4827005F083
:1017B00067F817E012480078042813D14FF47A70C4
:1017C000104908800120104908801020042300904F
:1017D00008460288DC214FF4827005F051F80020A1
:1017E0000749087007480088401E084908802020E3
:1017F0000749086008BD0000140122424210002081
:101800001410002000100020021000202C040040C2
:101810001404014010B500F06BF9022200210846C3
:1018200000F01EF801220521022000F019F8012223
:101830000F21002000F014F8022306221946184652
:1018400005F04CF9022317220121184605F046F94C
:10185000022328220021184605F040F910BD00009F
:1018600070B504460B46CE1701EB9676C6F387009B
:10187000CE1701EB9676B610A1EB8606B606350EAE
:101880001C4B9B6943F001031A4EB3614FEAB63318
:1018900053F820300F26AE40B343174E46F82030A1
:1018A000334653F8203004FA05F61E43124B43F832
:1018B0002060124B1B6801268E4033430F4E33606D
:1018C00002F0010343B10D4B0C331B6801268E401F
:1018D00033430A4E0C36336002F0020343B1074B28
:1018E00008331E6801238B401E43044B08331E60DF
:1018F00070BD0000001002400800014000040140DB
:101900002DE9FF5F0020019001904FF48062514962
:101910005148FEF79BFC01242FE04F4931F8241079
:1019200008B206F08BFA03904B4951F824100814C2
:1019300006F084FA02900299084606F0DFFA834620
:101940000399084606F0DAFA5946009006F026F99F
:10195000824606F0F7F8074605F0B2FC054605F0AA
:1019600043FD81464846019906F094FB03D2CDF829
:1019700004903A480480601C84B2B4F5007FCCDB4C
:1019800037480088B0F57A7F12D13448008805F0D6
:10199000E2FE82460022334B05F058FD0546002248
:1019A000314B05F0EBFE074605F0A8FE2F49086015
:1019B0002B480088642812D12848008805F0CBFE07
:1019C00007460022274B05F041FD05460022284B23
:1019D00005F0D4FE824605F091FE244908602048B7
:1019E00000880A2812D11D48008805F0B4FE05467B
:1019F00000221C4B05F02AFD074600221D4B05F076
:101A0000BDFE824605F07AFE184908601448008839
:101A1000022812D11148008805F09DFE07460022D9
:101A2000104B05F013FD05460022134B05F0A6FEF2
:101A3000824605F063FE0D490860102005230090E2
:101A40000A48B42102684FF48C7004F019FFBDE815
:101A5000FF9F00004820002048300020FC0F00209D
:101A6000001000200000904000408F400410002033
:101A7000008DC3408076F840007D0E4101460F483E
:101A8000006820F01F000D4A1060104600680843EF
:101A900010600A482C38006840F48000074A2C3A4D
:101AA000106000BF05483438006800F002000028CC
:101AB000F8D002481830006880B2704734240140E2
:101AC00001464906084A926942F00102064B9A61B2
:101AD000064A526822F0E062044B5A601A46526885
:101AE0000A435A60704700000010024000000140A5
:101AF00010B51E48806940F004001C498861084602
:101B0000806940F0100088610120FFF7D9FF184874
:101B1000006820F00F00164908600846006840F091
:101B200008000860081D006820F07040091D08606A
:101B30000846006840F0004008600D480C3000681E
:101B400040F400400A490C3108600A48006820F45B
:101B50007000084908600846006840F4000008600A
:101B60000846C06840F02000C86010BD0010024068
:101B7000000801400010014070B5044600261D48D1
:101B80000588408845431B48808846F60401884202
:101B900016D118488079012812D100201549887182
:101BA0002A2048812B2088810021084604F0F6FB7A
:101BB0000120104988712B2048812A20888103E068
:101BC0000021084604F0EAFB04F0FCFE00260DE0CC
:101BD0004FF480700849086140004861074804607C
:101BE00080204861086180000861761CAE42EFD316
:101BF00070BD000010610020001001400C0C01407D
:101C000010B50446002C66D16C498871F02008801C
:101C10004FF4A07048800846808849F241318842DC
:101C20000BD06648808846F60401884205D0634898
:101C3000808845F2103188421AD12C205F490881F2
:101C40002A2048812B2088810846808846F6040196
:101C5000884205D05948808845F21031884206D123
:101C60004FF4A070554908804FF4F0704880A1E00F
:101C70005248808845F21051884210D14FF43050BC
:101C80004E4908814FF4285048814FF42C508881E8
:101C90004FF4F07008804FF4487048808AE047485D
:101CA000808841F6631188420DD12C204349088178
:101CB0002B2048812A2088814FF4F07008804FF44F
:101CC0004870488076E022203C49088120204881E5
:101CD000212088816EE00120384988714FF4A0707E
:101CE0000880F02048800846808849F241318842C7
:101CF00005D03248808845F21031884207D12C2027
:101D00002E4908812A2048812B2088813FE02B48DA
:101D1000808846F60401884207D12C202749088193
:101D20002B2048812A20888131E02448808845F290
:101D30001051884210D14FF43050204908814FF49F
:101D4000285048814FF42C5088814FF44870088007
:101D50004FF4F07048801AE01848808841F663110B
:101D600088420DD12C20154908812A2048812B203A
:101D700088814FF4487008804FF4F070488006E086
:101D800022200E49088121204881202088810B488B
:101D9000808846F60401884205D00848808845F2CC
:101DA0001031884206D14FF4F070044908804FF496
:101DB000A0704880002004F0C5F810BD106100201C
:101DC0002DE9FF4F84B081468A460020039002909F
:101DD0000698A0EB09050798A0EB0A06CDF8049039
:101DE000CDF800A0002D01DD012705E00DB9002789
:101DF00002E04FF0FF376D42002E02DD4FF0010888
:101E000006E016B94FF0000802E04FF0FF387642C6
:101E1000B54201DD2C4600E034464FF0000B21E0D6
:101E2000009A91B2019A90B200F022F803982844E7
:101E300003900298304402900398A04205DD039875
:101E4000001B03900198384401900298A04205DDE0
:101E50000298001B02900098404400900BF1010092
:101E60001FFA80FB601C8345DADD08B0BDE8F08F07
:101E700030B504460D462946204604F08FFA04F09A
:101E8000A1FD4FF480700749086140004861064891
:101E90000088064908608020024948610861800086
:101EA000086130BD00100140421000200C0C0140C0
:101EB00070B504460D461646D348808849F2413134
:101EC000884205D0D048808845F21031884240D100
:101ED000CD49488904F064FD4FF48070CB49086116
:101EE000400048612012CA4908608020C749486103
:101EF0000861800008614010086140004861E0B25C
:101F0000C34908608020C1494861086180000861B8
:101F1000BD49888904F044FD4FF48070BB490861D5
:101F2000400048612812BA4908608020B7494861DA
:101F30000861800008614010086140004861E8B213
:101F4000B34908608020B149486108618000086198
:101F50003DE1AD48808845F21051884250D1AA49F0
:101F6000488904F01DFD4FF48070A84908614000C5
:101F700048612012A64908608020A4494861086190
:101F800080000861A0494989491C88B204F008FD15
:101F90004FF480709D49086140004861E0B29C495F
:101FA000086080209949486108618000086196496D
:101FB000888904F0F5FC4FF4807094490861400072
:101FC0004861281292490860802090494861086160
:101FD000800008618C498989491C88B204F0E0FCC2
:101FE0004FF480708949086140004861E8B288492F
:101FF0000860802085494861086180000861E6E04A
:102000008148808841F6631188427DD17E4880797D
:1020100020B97D480088401E001B84B27A49488957
:1020200004F0BEFC4FF480707849086140004861BC
:102030002012774908608020744948610861800057
:1020400008614010086140004861E0B270490860D2
:1020500080206E4948610861800008614010086175
:102060004000486120126A49086080206749486141
:102070000861800008614010086140004861E0B2DA
:1020800063490860802061494861086180000861F7
:102090005D49888904F084FC4FF480705B490861D5
:1020A0004000486128125A49086080205749486119
:1020B0000861800008614010086140004861E8B292
:1020C00053490860802051494861086180000861D7
:1020D000401008614000486128124D490860802086
:1020E0004A49486108618000086140100861400069
:1020F0004861E8B246490860802044494861086167
:102100008000086163E0FFE73F48808846F60401ED
:10211000884249D13C488079012804D13A48008856
:10212000401E001B84B23849488904F039FC4FF442
:1021300080703649086140004861201234490860C7
:1021400080203249486108618000086140100861C0
:1021500040004861E0B22E49086080202B49486168
:102160000861800008612849888904F019FC4FF44F
:10217000807026490861400048612812244908609F
:102180008020224948610861800008614010086190
:1021900040004861E8B21E49086080201B49486140
:1021A00008618000086112E017488079012804D195
:1021B00015480088401E001B84B2134948892146F7
:1021C00004F008FC10498889294604F003FC4FF408
:1021D00080700E494861400048610B4800890C49F5
:1021E000086080200949486108618000086140104A
:1021F0000861400048610648066080204861086127
:102200008000086170BD00001061002000100140D6
:102210000C0C014010B5FE48806940F00800FC49F4
:1022200088610846806940F010008861084680692E
:1022300040F0010088610120FFF742FCF54840684A
:102240006FF30B00F34948600846406840F23331B1
:102250000843F04948600846006820F07F40086065
:102260000846006840F04C5008600846C06840F4DA
:10227000F860C8604FF03330E7490860091F086014
:102280004FF6FF70E44908310860322004F042FE46
:102290000121002004F09EFB322004F03BFE0020D0
:1022A00003F0DEFDDD49888008468088FF280ADBD0
:1022B000084680884FF6FF71884204D0D74880884E
:1022C000B0F5134F7ED1D32004F06AFB03F090FDEC
:1022D00003F08EFD03F08CFDD0498880084680888D
:1022E0004FF6FF7101EA0020CC49888003F080FDA1
:1022F000CA4989880843C94988800846808849F2C4
:10230000413188425ED0BF2004F04AFB03F070FDEB
:1023100003F06EFD03F06CFD03F06AFDBF49888099
:10232000084680884FF6FF7101EA0020BB4988808B
:1023300003F05EFDB94989880843B849888008469A
:10234000808846F60401884274D0D42004F028FB2B
:1023500003F04EFD03F04CFD03F04AFDAF498880C9
:10236000084680884FF6FF7101EA0020AB4988805B
:1023700003F03EFDA94989880843A849888008469A
:10238000808845F21031884254D04FF45A4004F00E
:1023900007FB03F02DFD4FF45B4004F001FB03F05D
:1023A00027FD9E498880084680884FF6FF7101EA24
:1023B00000209A4988804FF45C4004F0F1FA03F061
:1023C00017FD00E036E095498988084393498880E5
:1023D00008468088B0F5004F02D145F21050888041
:1023E0008E48808845F21051884223D0A12004F005
:1023F000D7FA03F0FDFC8949888003F0F9FC87498E
:102400008880084680884FF6FF7101EA00208349E2
:10241000888003F0EDFC8149898808437F498880E2
:102420000846808845F26171884203D141F6631005
:102430007A4988807948808849F2413188427CD144
:10244000CF2004F0ADFA002004F098FAC12004F087
:1024500095FA302004F092FAED2004F0A1FA6420FD
:1024600004F08CFA032004F089FA122004F086FAB2
:10247000812004F083FAE82004F092FA852004F029
:102480007DFA102004F07AFA7A2004F077FACB2053
:1024900004F086FA392004F071FA2C2004F06EFA68
:1024A000002004F06BFA342004F068FA022004F0F3
:1024B00065FAF72004F074FA202004F05FFAEA20AD
:1024C00004F06EFA002004F059FA002004F056FAE5
:1024D000C02004F065FA1B2004F050FAC12004F07B
:1024E0005FFA012004F04AFAC52004F059FA3020BE
:1024F00004F044FA302004F041FAC72004F050FA06
:10250000B72004F03BFA362004F04AFA482004F0E1
:1025100035FA3A2004F044FA552004F02FFAB1209D
:1025200004F03EFA002004F029FA1A2004F026FAFA
:10253000B62004F035FA0A2000E0A2E004F01EFA0A
:10254000A22004F01BFAF22004F02AFA002004F082
:1025500015FA262004F024FA012004F00FFAE020F6
:1025600004F01EFA0F2004F009FA2A2004F006FAFB
:10257000282004F003FA082004F000FA0E2004F0EA
:10258000FDF9082004F0FAF9542004F0F7F9A92025
:1025900004F0F4F9432004F0F1F90A2004F0EEF914
:1025A0000F2004F0EBF9002004F0E8F9002004F01B
:1025B000E5F9002004F0E2F9002004F0DFF9E12061
:1025C00004F0EEF9002004F0D9F9152004F0D6F952
:1025D000172004F0D3F9072004F0D0F9112004F0FB
:1025E000CDF9062004F0CAF92B2004F0C7F95620D3
:1025F00004F0C4F93C2004F0C1F9052004F0BEF950
:10260000102004F0BBF90F2004F0B8F93F2007E0D8
:102610000010024000100140040C01401061002035
:1026200004F0ACF93F2004F0A9F90F2004F0A6F95A
:102630002B2004F0B5F9002004F0A0F9002004F0EC
:102640009DF9012004F09AF93F2004F097F92A201F
:1026500004F0A6F9002004F091F9002004F08EF9AE
:10266000002004F08BF9EF2004F088F9112004F029
:1026700097F9782004F04EFC292004F091F903F03A
:102680009ABBFE48808846F6040188427ED111201C
:1026900004F086F9142004F03DFCD02004F080F909
:1026A000072004F06BF9422004F068F91D2004F0C3
:1026B00065F9D12004F074F9002004F05FF91A20C4
:1026C00004F05CF9092004F059F9D22004F068F90B
:1026D000012004F053F9222004F050F9C02004F046
:1026E0005FF9102004F04AF93B2004F047F900207C
:1026F00004F044F9022004F041F9112004F03EF9FD
:10270000C52004F04DF9032004F038F9C82004F086
:1027100047F9002004F032F9252004F02FF9212098
:1027200004F02CF9052004F029F9002004F026F922
:102730000A2004F023F9652004F020F9252004F094
:102740001DF9772004F01AF9502004F017F90F2032
:1027500004F014F9002004F011F9F82004F020F935
:10276000012004F00BF9FE2004F01AF9002004F017
:1027700005F9022004F002F9202004F011F93620B6
:1027800004F00EF9082004F0F9F800E02AE03A20FD
:1027900004F006F9552004F0F1F82B2004F000F9BC
:1027A000002004F0EBF8002004F0E8F8012004F029
:1027B000E5F83F2004F0E2F82A2004F0F1F80020C8
:1027C00004F0DCF8002004F0D9F8012004F0D6F879
:1027D000DF2004F0D3F8782004F09CFB292004F0DB
:1027E000DFF84CE7A548808845F21031884240F078
:1027F0007C87ED2004F0D4F8012004F0BFF8FE201F
:1028000004F0BCF8EE2004F0CBF8DE2004F0B6F8BB
:10281000212004F0B3F8F12004F0C2F8012004F004
:10282000ADF8DF2004F0BCF8102004F0A7F8C420B5
:1028300004F0B6F88F2004F0A1F8C62004F0B0F838
:10284000002004F09BF8E22004F098F8E22004F065
:1028500095F8E22004F092F8BF2004F0A1F8AA2035
:1028600004F08CF8B02004F09BF80D2004F086F8FA
:10287000002004F083F80D2004F080F8002004F01C
:102880007DF8112004F07AF8002004F077F8192080
:1028900004F074F8002004F071F8212004F06EF8C0
:1028A000002004F06BF82D2004F068F8002004F0FC
:1028B00065F83D2004F062F8002004F05FF85D2028
:1028C00004F05CF8002004F059F85D2004F056F89C
:1028D000002004F053F8B12004F062F8802004F0E6
:1028E0004DF8002004F04AF88B2004F047F800204F
:1028F00004F044F8962004F041F8002004F03EF87B
:10290000B22004F04DF8002004F038F8002004F064
:1029100035F8022004F032F8002004F02FF80320EC
:1029200004F02CF8002004F029F8B32004F038F863
:10293000002004F023F8002004F020F8002004F028
:102940001DF8002004F01AF8002004F017F8002009
:1029500004F014F8002004F011F8002004F00EF840
:10296000002004F00BF8002004F008F8002004F028
:1029700005F8002004F002F8002003F0FFFF00201B
:1029800003F0FCFF002003F0F9FF002003F0F6FF46
:10299000002003F0F3FF002003F0F0FF002003F01D
:1029A000EDFF002003F0EAFF002003F0E7FF002026
:1029B00003F0E4FF002003F0E1FF002003F0DEFF5E
:1029C000B42003F0EDFF8B2003F0D8FF002003F0CC
:1029D000D5FF962003F0D2FF002003F0CFFFA12007
:1029E00003F0CCFF002003F0C9FFB52003F0D8FFAF
:1029F000022003F0C3FF002003F0C0FF032003F018
:102A0000BDFF002003F0BAFF042003F0B7FF002051
:102A100003F0B4FFB62003F0C3FF002003F0AEFFC5
:102A2000002003F0ABFFB72003F0BAFF002003F053
:102A3000A5FF002003F0A2FF3F2003F09FFF00202E
:102A400003F09CFF5E2003F099FF002003F096FF47
:102A5000642003F093FF002003F090FF8C2003F02C
:102A60008DFF002003F08AFFAC2003F087FF0020D9
:102A700003F084FFDC2003F081FF01E010610020FF
:102A8000002003F07BFF702003F078FF002003F0AC
:102A900075FF902003F072FF002003F06FFFEB2022
:102AA00003F06CFF002003F069FFDC2003F066FFF9
:102AB000002003F063FFB82003F072FF002003F052
:102AC0005DFF002003F05AFF002003F057FF0020B5
:102AD00003F054FF002003F051FF002003F04EFFED
:102AE000002003F04BFF002003F048FFBA2003F062
:102AF00057FF242003F042FF002003F03FFF002097
:102B000003F03CFF002003F039FFC12003F048FF31
:102B1000202003F033FF002003F030FF542003F0A7
:102B20002DFF002003F02AFFFF2003F027FF0020E5
:102B300003F024FFC22003F033FF0A2003F01EFF3E
:102B4000002003F01BFF042003F018FF002003F017
:102B500015FFC32003F024FF3C2003F00FFF0020EB
:102B600003F00CFF3A2003F009FF002003F006FFFA
:102B7000392003F003FF002003F000FF372003F0AB
:102B8000FDFE002003F0FAFE3C2003F0F7FE0020DB
:102B900003F0F4FE362003F0F1FE002003F0EEFE19
:102BA000322003F0EBFE002003F0E8FE2F2003F0BC
:102BB000E5FE002003F0E2FE2C2003F0DFFE002003
:102BC00003F0DCFE292003F0D9FE002003F0D6FE3E
:102BD000262003F0D3FE002003F0D0FE242003F0D3
:102BE000CDFE002003F0CAFE242003F0C7FE002023
:102BF00003F0C4FE232003F0C1FE002003F0BEFE5C
:102C00003C2003F0BBFE002003F0B8FE362003F0AA
:102C1000B5FE002003F0B2FE322003F0AFFE00202C
:102C200003F0ACFE2F2003F0A9FE002003F0A6FE67
:102C30002C2003F0A3FE002003F0A0FE292003F0C7
:102C40009DFE002003F09AFE262003F097FE002050
:102C500003F094FE242003F091FE002003F08EFE8A
:102C6000242003F08BFE002003F088FE232003F0D5
:102C700085FE002003F082FEC42003F091FE622056
:102C800003F07CFE002003F079FE052003F076FEC1
:102C9000002003F073FE842003F070FE002003F098
:102CA0006DFEF02003F06AFE002003F067FE18209E
:102CB00003F064FE002003F061FEA42003F05EFE3A
:102CC000002003F05BFE182003F058FE002003F004
:102CD00055FE502003F052FE002003F04FFE0C2062
:102CE00003F04CFE002003F049FE172003F046FEDF
:102CF000002003F043FE952003F040FE002003F087
:102D00003DFEF32003F03AFE002003F037FEE620FC
:102D100003F034FE002003F031FEC52003F040FE36
:102D2000322003F02BFE002003F028FE442003F0A5
:102D300025FE002003F022FE652003F01FFE002088
:102D400003F01CFE762003F019FE002003F016FEAF
:102D5000882003F013FE002003F010FEC62003F0CD
:102D60001FFE202003F00AFE002003F007FE1720BC
:102D700003F004FE002003F001FE012003F0FEFD3D
:102D8000002003F0FBFDC72003F00AFE002003F043
:102D9000F5FD002003F0F2FD002003F0EFFD002020
:102DA00003F0ECFDC82003F0FBFD002003F0E6FD7E
:102DB000002003F0E3FD002003F0E0FD002003F01D
:102DC000DDFDC92003F0ECFD002003F0D7FD00205D
:102DD00003F0D4FD002003F0D1FD002003F0CEFD70
:102DE000002003F0CBFD002003F0C8FD002003F01D
:102DF000C5FD002003F0C2FD002003F0BFFD002050
:102E000003F0BCFD002003F0B9FD002003F0B6FD87
:102E1000002003F0B3FD002003F0B0FD002003F01C
:102E2000ADFD002003F0AAFDE02003F0B9FD16205F
:102E300003F0A4FD002003F0A1FD1C2003F09EFD83
:102E4000002003F09BFD212003F098FD002003F0FB
:102E500095FD362003F092FD002003F08FFD462003
:102E600003F08CFD002003F089FD522003F086FD65
:102E7000002003F083FD642003F080FD002003F0B8
:102E80007DFD7A2003F07AFD002003F077FD8B2092
:102E900003F074FD002003F071FD992003F06EFD36
:102EA000002003F06BFDA82003F068FD002003F074
:102EB00065FDB92003F062FD002003F05FFDC42032
:102EC00003F05CFD002003F059FDCA2003F056FD1D
:102ED000002003F053FDD22003F050FD002003F04A
:102EE0004DFDD92003F04AFD002003F047FDE0200E
:102EF00003F044FD002003F041FDF32003F03EFD0C
:102F0000002003F03BFDE12003F04AFD162003F012
:102F100035FD002003F032FD1C2003F02FFD0020C2
:102F200003F02CFD222003F029FD002003F026FDF4
:102F3000362003F023FD002003F020FD452003F0A0
:102F40001DFD002003F01AFD522003F017FD0020A4
:102F500003F014FD642003F011FD002003F00EFDCA
:102F60007A2003F00BFD002003F008FD8B2003F016
:102F700005FD002003F002FD992003F0FFFC002076
:102F800003F0FCFCA82003F0F9FC002003F0F6FCA1
:102F9000B92003F0F3FC002003F0F0FCC42003F0A0
:102FA000EDFC002003F0EAFCCA2003F0E7FC00205F
:102FB00003F0E4FCD22003F0E1FC002003F0DEFC8F
:102FC000D82003F0DBFC002003F0D8FCE02003F065
:102FD000D5FC002003F0D2FCF32003F0CFFC00204E
:102FE00003F0CCFCE22003F0DBFC052003F0C6FC80
:102FF000002003F0C3FC0B2003F0C0FC002003F012
:10300000BDFC1B2003F0BAFC002003F0B7FC342009
:1030100003F0B4FC002003F0B1FC442003F0AEFC4C
:10302000002003F0ABFC4F2003F0A8FC002003F0CD
:10303000A5FC612003F0A2FC002003F09FFC792096
:1030400003F09CFC002003F099FC882003F096FC20
:10305000002003F093FC972003F090FC002003F085
:103060008DFCA62003F08AFC002003F087FCB7202B
:1030700003F084FC002003F081FCC22003F07EFCFE
:10308000002003F07BFCC72003F078FC002003F055
:1030900075FCD12003F072FC002003F06FFCD620F9
:1030A00003F06CFC002003F069FCDD2003F066FCFB
:1030B000002003F063FCF32003F060FC002003F029
:1030C0005DFCE32003F06CFC052003F057FC0020BE
:1030D00003F054FC0A2003F051FC002003F04EFCE6
:1030E0001C2003F04BFC002003F048FC332003F0CD
:1030F00045FC002003F042FC442003F03FFC00208C
:1031000003F03CFC502003F039FC002003F036FCB7
:10311000622003F033FC002003F030FC782003F041
:103120002DFC002003F02AFC882003F027FC00205F
:1031300003F024FC972003F021FC002003F01EFC88
:10314000A62003F01BFC002003F018FCB72003F0BE
:1031500015FC002003F012FCC22003F00FFC00203D
:1031600003F00CFCC72003F009FC002003F006FC70
:10317000D12003F003FC002003F000FCD52003F075
:10318000FDFB002003F0FAFBDD2003F0F7FB00203D
:1031900003F0F4FBF32003F0F1FB002003F0EEFB5F
:1031A000E42003F0FDFB012003F0E8FB002003F026
:1031B000E5FB012003F0E2FB002003F0DFFB02202F
:1031C00003F0DCFB002003F0D9FB2A2003F0D6FB40
:1031D000002003F0D3FB3C2003F0D0FB002003F0E1
:1031E000CDFB4B2003F0CAFB002003F0C7FB5D20A2
:1031F00003F0C4FB002003F0C1FB742003F0BEFB0E
:10320000002003F0BBFB842003F0B8FB002003F098
:10321000B5FB932003F0B2FB002003F0AFFBA2202C
:1032200003F0ACFB002003F0A9FBB32003F0A6FBE6
:10323000002003F0A3FBBE2003F0A0FB002003F05E
:103240009DFBC42003F09AFB002003F097FBCD20E8
:1032500003F094FB002003F091FBD32003F08EFBDE
:10326000002003F08BFBDD2003F088FB002003F03F
:1032700085FBF32003F082FB002003F07FFBE520B9
:1032800003F08EFB002003F079FB002003F076FBB7
:10329000002003F073FB002003F070FB022003F01A
:1032A0006DFB002003F06AFB292003F067FB002080
:1032B00003F064FB3C2003F061FB002003F05EFBA5
:1032C0004B2003F05BFB002003F058FB5D2003F074
:1032D00055FB002003F052FB742003F04FFB00204D
:1032E00003F04CFB842003F049FB002003F046FB75
:1032F000932003F043FB002003F040FBA22003F0E7
:103300003DFB002003F03AFBB32003F037FB002025
:1033100003F034FBBE2003F031FB002003F02EFB52
:10332000C42003F02BFB002003F028FBCD2003F08A
:1033300025FB002003F022FBD32003F01FFB00201D
:1033400003F01CFBDC2003F019FB002003F016FB4C
:10335000F32003F013FB002003F010FBE62003F042
:103360001FFB112003F00AFB002003F007FB3420B1
:1033700003F004FB002003F001FB562003F0FEFAEB
:10338000002003F0FBFA762003F0F8FA002003F0A7
:10339000F5FA772003F0F2FA002003F0EFFA662046
:1033A00003F0ECFA002003F0E9FA882003F0E6FAD3
:1033B000002003F0E3FA992003F0E0FA002003F084
:1033C000DDFABB2003F0DAFA002003F0D7FA9920E7
:1033D00003F0D4FA002003F0D1FA662003F0CEFA0D
:1033E000002003F0CBFA552003F0C8FA002003F0C8
:1033F000C5FA552003F0C2FA002003F0BFFA4520B9
:1034000003F0BCFA002003F0B9FA432003F0B6FA47
:10341000002003F0B3FA442003F0B0FA002003F0D8
:10342000ADFAE72003F0BCFA322003F0A7FA00203F
:1034300003F0A4FA552003F0A1FA002003F09EFA4D
:10344000762003F09BFA002003F098FA662003F040
:1034500095FA002003F092FA672003F08FFA00201B
:1034600003F08CFA672003F089FA002003F086FA53
:10347000872003F083FA002003F080FA992003F0FC
:103480007DFA002003F07AFABB2003F077FA0020DF
:1034900003F074FA992003F071FA002003F06EFA39
:1034A000772003F06BFA002003F068FA442003F061
:1034B00065FA002003F062FA562003F05FFA00205C
:1034C00003F05CFA232003F059FA002003F056FAC7
:1034D000332003F053FA002003F050FA452003F0A4
:1034E0004DFA002003F04AFAE82003F059FA0020D0
:1034F00003F044FA002003F041FA992003F03EFA69
:10350000002003F03BFA872003F038FA002003F094
:1035100035FA882003F032FA002003F02FFA7720E2
:1035200003F02CFA002003F029FA662003F026FAB3
:10353000002003F023FA882003F020FA002003F093
:103540001DFAAA2003F01AFA002003F017FABB2094
:1035500003F014FA002003F011FA992003F00EFA98
:10356000002003F00BFA662003F008FA002003F0B5
:1035700005FA552003F002FA002003F0FFF9552068
:1035800003F0FCF9002003F0F9F9442003F0F6F908
:10359000002003F0F3F9442003F0F0F9002003F0D9
:1035A000EDF9552003F0EAF9002003F0E7F9E920EE
:1035B00003F0F6F9AA2003F0E1F9002003F0DEF9A8
:1035C000002003F0DBF9002003F0D8F9002003F01D
:1035D000E7F9AA2003F0D2F9CF2003F0E1F90020A7
:1035E00003F0CCF9002003F0C9F9002003F0C6F97C
:1035F000002003F0C3F9002003F0C0F9002003F01D
:10360000BDF9002003F0BAF9002003F0B7F900205B
:1036100003F0B4F9002003F0B1F9002003F0AEF993
:10362000002003F0ABF9002003F0A8F9002003F01C
:10363000A5F9002003F0A2F9002003F09FF9002073
:1036400003F09CF9F02003F0ABF9002003F096F9A9
:10365000502003F093F9002003F090F9002003F0CC
:103660008DF9002003F08AF9F32003F099F9002086
:1036700003F084F9F92003F093F9062003F07EF9B2
:10368000102003F07BF9292003F078F9002003F0E3
:1036900075F93A2003F084F9552003F06FF91120F1
:1036A00003F07EF9642003F035FC292003F078F95B
:1036B000352003F075F9002003F060F9512003F084
:1036C0006FF9FF2003F05AF9532003F069F92C2019
:1036D00003F054F9552003F063F9822003F04EF90A
:1036E0002C2003F05DF902F066BBFE48808845F2AD
:1036F000105188427ED155214FF4704003F06AF991
:10370000AA214FF2010003F065F952214FF20200A5
:1037100003F060F908214FF2030003F05BF9012187
:103720004FF2040003F056F90D214FF4304003F03E
:1037300051F90D214BF2010003F04CF90D214BF230
:10374000020003F047F934214FF4364003F042F908
:1037500034214BF2016003F03DF934214BF2026059
:1037600003F038F90D214FF4314003F033F90D2106
:103770004BF2011003F02EF90D214BF2021003F071
:1037800029F934214FF4374003F024F934214BF266
:10379000017003F01FF934214BF2027003F01AF9A3
:1037A00000214FF4324003F015F900214BF20120C3
:1037B00003F010F900214BF2022003F00BF9242151
:1037C0004FF4384003F006F924214BF6010003F0D2
:1037D00001F924214BF6020003F0FCF801214FF41B
:1037E0003F4003F0F7F80F214FF4334003F0F2F8B5
:1037F0000F2100E0FEE34BF2013003F0EBF80F2164
:103800004BF2023003F0E6F834214FF4394003F074
:10381000E1F834214BF6011003F0DCF834214BF6CB
:10382000021003F0D7F808214FF4354003F0D2F826
:1038300008214BF2015003F0CDF808214BF2025061
:1038400003F0C8F803214FF4424003F0C3F82421E9
:103850004FF43A4003F0BEF824214BF6012003F068
:10386000B9F824214BF6022003F0B4F800214FF4FC
:103870003C4003F0AFF878214BF6014003F0AAF882
:1038800000214BF6024003F0A5F800214FF43D4023
:1038900003F0A0F878214BF6015003F09BF80021CB
:1038A0004BF6025003F096F800214FF43E4003F02F
:1038B00091F864214BF6016003F08CF800214FF47D
:1038C000514003F087F833214DF2011003F082F8E4
:1038D00000214DF2021003F07DF834214DF2031067
:1038E00003F078F800214DF2041003F073F83A2148
:1038F0004DF2051003F06EF800214DF2061003F0B2
:1039000069F84A214DF2071003F064F800214DF2E6
:10391000081003F05FF85C214DF2091003F05AF82B
:1039200000214DF20A1003F055F881214DF20B10E1
:1039300003F050F800214DF20C1003F04BF8A621D3
:103940004DF20D1003F046F800214DF20E1003F079
:1039500041F8E5214DF20F1003F03CF801214DF242
:10396000101003F037F813214DF2111003F032F864
:1039700001214DF2121003F02DF854214DF21310D5
:1039800003F028F801214DF2141003F023F88221EE
:103990004DF2151003F01EF801214DF2161003F040
:1039A00019F8CA214DF2171003F014F802214DF254
:1039B000181003F00FF800214DF2191003F00AF867
:1039C00002214DF21A1003F005F801214DF21B10EF
:1039D00003F000F802214DF21C1002F0FBFF34212D
:1039E0004DF21D1002F0F6FF02214DF21E1002F002
:1039F000F1FF67214DF21F1002F0ECFF02214DF2A2
:103A0000201002F0E7FF84214DF2211002F0E2FFC6
:103A100002214DF2221002F0DDFFA4214DF223100D
:103A200002F0D8FF02214DF2241002F0D3FFB7219B
:103A30004DF2251002F0CEFF02214DF2261002F0C9
:103A4000C9FFCF214DF2271002F0C4FF02214DF231
:103A5000281002F0BFFFDE214DF2291002F0BAFF5C
:103A600002214DF22A1002F0B5FFF2214DF22B1087
:103A700002F0B0FF02214DF22C1002F0ABFFFE214C
:103A80004DF22D1002F0A6FF03214DF22E1002F090
:103A9000A1FF10214DF22F1002F09CFF03214DF2E7
:103AA000301002F097FF33214DF2311002F092FFF7
:103AB00003214DF2321002F08DFF6D214DF23310D3
:103AC00002F088FF00214FF4524002F083FF3321BF
:103AD0004DF2012002F07EFF00214DF2022002F0A3
:103AE00079FF01E01061002034214DF2032002F043
:103AF00071FF00214DF2042002F06CFF3A214DF2DB
:103B0000052002F067FF00214DF2062002F062FF5F
:103B10004A214DF2072002F05DFF00214DF20820FE
:103B200002F058FF5C214DF2092002F053FF002102
:103B30004DF20A2002F04EFF81214DF20B2002F0DF
:103B400049FF00214DF20C2002F044FFA6214DF266
:103B50000D2002F03FFF00214DF20E2002F03AFF4F
:103B6000E5214DF20F2002F035FF01214DF210202A
:103B700002F030FF13214DF2112002F02BFF012142
:103B80004DF2122002F026FF54214DF2132002F0D4
:103B900021FF01214DF2142002F01CFF82214DF281
:103BA000152002F017FF01214DF2162002F012FF3E
:103BB000CA214DF2172002F00DFF02214DF218200C
:103BC00002F008FF00214DF2192002F003FF02214C
:103BD0004DF21A2002F0FEFE01214DF21B2002F0F0
:103BE000F9FE02214DF21C2002F0F4FE34214DF2C8
:103BF0001D2002F0EFFE02214DF21E2002F0EAFE2F
:103C000067214DF21F2002F0E5FE02214DF2202037
:103C100002F0E0FE84214DF2212002F0DBFE0221C1
:103C20004DF2222002F0D6FEA4214DF2232002F014
:103C3000D1FE02214DF2242002F0CCFEB7214DF23C
:103C4000252002F0C7FE02214DF2262002F0C2FE1E
:103C5000CF214DF2272002F0BDFE02214DF2282097
:103C600002F0B8FEDE214DF2292002F0B3FE02215F
:103C70004DF22A2002F0AEFEF2214DF22B2002F08E
:103C8000A9FE02214DF22C2002F0A4FEFE214DF2ED
:103C90002D2002F09FFE03214DF22E2002F09AFE0D
:103CA00010214DF22F2002F095FE03214DF230201D
:103CB00002F090FE33214DF2312002F08BFE032101
:103CC0004DF2322002F086FE6D214DF2332002F0DB
:103CD00081FE00214FF4534002F07CFE33214DF26F
:103CE000013002F077FE00214DF2023002F072FE48
:103CF00034214DF2033002F06DFE00214DF204300C
:103D000002F068FE3A214DF2053002F063FE002118
:103D10004DF2063002F05EFE4A214DF2073002F00D
:103D200059FE00214DF2083002F054FE5C214DF2A4
:103D3000093002F04FFE00214DF20A3002F04AFE37
:103D400081214DF20B3002F045FE00214DF20C3086
:103D500002F040FEA6214DF20D3002F03BFE0021A4
:103D60004DF20E3002F036FEE5214DF20F3002F03A
:103D700031FE01214DF2103002F02CFE13214DF2E4
:103D8000113002F027FE01214DF2123002F022FE26
:103D900054214DF2133002F01DFE01214DF214307A
:103DA00002F018FE82214DF2153002F013FE0121BF
:103DB0004DF2163002F00EFECA214DF2173002F01D
:103DC00009FE02214DF2183002F004FE00214DF2EE
:103DD000193002F0FFFD02214DF21A3002F0FAFD17
:103DE00001214DF21B3002F0F5FD02214DF21C3095
:103DF00002F0F0FD34214DF21D3002F0EBFD022106
:103E00004DF21E3002F0E6FD67214DF21F3002F048
:103E1000E1FD02214DF2203002F0DCFD84214DF263
:103E2000213002F0D7FD02214DF2223002F0D2FD06
:103E3000A4214DF2233002F0CDFD02214DF22430B9
:103E400002F0C8FDB7214DF2253002F0C3FD02217A
:103E50004DF2263002F0BEFDCF214DF2273002F0A8
:103E6000B9FD02214DF2283002F0B4FDDE214DF201
:103E7000293002F0AFFD02214DF22A3002F0AAFDF6
:103E8000F2214DF22B3002F0A5FD02214DF22C3033
:103E900002F0A0FDFE214DF22D3002F09BFD03212A
:103EA0004DF22E3002F096FD10214DF22F3002F02F
:103EB00091FD03214DF2303002F08CFD33214DF2A3
:103EC000313002F087FD03214DF2323002F082FDE5
:103ED0006D214DF2333002F07DFD00214FF454404E
:103EE00002F078FD33214DF2014002F073FD002114
:103EF0004DF2024002F06EFD34214DF2034002F01B
:103F000069FD00214DF2044002F064FD3A214DF2BA
:103F1000054002F05FFD00214DF2064002F05AFD1F
:103F20004A214DF2074002F055FD00214DF20840B4
:103F300002F050FD5C214DF2094002F04BFD0021E2
:103F40004DF20A4002F046FD81214DF20B4002F095
:103F500041FD00214DF20C4002F03CFDA6214DF246
:103F60000D4002F037FD00214DF20E4002F032FD0F
:103F7000E5214DF20F4002F02DFD01214DF21040E0
:103F800002F028FD13214DF2114002F023FD012122
:103F90004DF2124002F01EFD54214DF2134002F08A
:103FA00019FD01214DF2144002F014FD82214DF261
:103FB000154002F00FFD01214DF2164002F00AFDFE
:103FC000CA214DF2174002F005FD02214DF21840C2
:103FD00002F000FD00214DF2194002F0FBFC02212D
:103FE0004DF21A4002F0F6FC01214DF21B4002F0A6
:103FF000F1FC00E004E302214DF21C4002F0EAFC77
:1040000034214DF21D4002F0E5FC02214DF21E402C
:1040100002F0E0FC67214DF21F4002F0DBFC0221C0
:104020004DF2204002F0D6FC84214DF2214002F0F6
:10403000D1FC02214DF2224002F0CCFCA4214DF231
:10404000234002F0C7FC02214DF2244002F0C2FCE2
:10405000B7214DF2254002F0BDFC02214DF2264071
:1040600002F0B8FCCF214DF2274002F0B3FC022150
:104070004DF2284002F0AEFCDE214DF2294002F064
:10408000A9FC02214DF22A4002F0A4FCF2214DF2DB
:104090002B4002F09FFC02214DF22C4002F09AFCD2
:1040A000FE214DF22D4002F095FC03214DF22E40F1
:1040B00002F090FC10214DF22F4002F08BFC032106
:1040C0004DF2304002F086FC33214DF2314002F0D7
:1040D00081FC03214DF2324002F07CFC6D214DF257
:1040E000334002F077FC00214FF4554002F072FC9F
:1040F00033214DF2015002F06DFC00214DF20250CF
:1041000002F068FC34214DF2035002F063FC002100
:104110004DF2045002F05EFC3A214DF2055002F0DF
:1041200059FC00214DF2065002F054FC4A214DF298
:10413000075002F04FFC00214DF2085002F04AFCFB
:104140005C214DF2095002F045FC00214DF20A506D
:1041500002F040FC81214DF20B5002F03BFC0021AB
:104160004DF20C5002F036FCA6214DF20D5002F03B
:1041700031FC00214DF20E5002F02CFCE5214DF2F5
:104180000F5002F027FC01214DF2105002F022FCEA
:1041900013214DF2115002F01DFC01214DF212507D
:1041A00002F018FC54214DF2135002F013FC0121CF
:1041B0004DF2145002F00EFC82214DF2155002F027
:1041C00009FC01214DF2165002F004FCCA214DF207
:1041D000175002F0FFFB02214DF2185002F0FAFBDB
:1041E00000214DF2195002F0F5FB02214DF21A5058
:1041F00002F0F0FB01214DF21B5002F0EBFB02211B
:104200004DF21C5002F0E6FB34214DF21D5002F03D
:10421000E1FB02214DF21E5002F0DCFB67214DF262
:104220001F5002F0D7FB02214DF2205002F0D2FBCA
:1042300084214DF2215002F0CDFB02214DF222509B
:1042400002F0C8FBA4214DF2235002F0C3FB02216F
:104250004DF2245002F0BEFBB7214DF2255002F082
:10426000B9FB02214DF2265002F0B4FBCF214DF2F2
:10427000275002F0AFFB02214DF2285002F0AAFBBA
:10428000DE214DF2295002F0A5FB02214DF22A5009
:1042900002F0A0FBF2214DF22B5002F09BFB022119
:1042A0004DF22C5002F096FBFE214DF22D5002F003
:1042B00091FB03214DF22E5002F08CFB10214DF2A8
:1042C0002F5002F087FB03214DF2305002F082FBA9
:1042D00033214DF2315002F07DFB03214DF232507B
:1042E00002F078FB6D214DF2335002F073FB002198
:1042F0004FF4564002F06EFB33214DF2016002F0A4
:1043000069FB00214DF2026002F064FB34214DF2A2
:10431000036002F05FFB00214DF2046002F05AFBE3
:104320003A214DF2056002F055FB00214DF2066086
:1043300002F050FB4A214DF2076002F04BFB0021D6
:104340004DF2086002F046FB5C214DF2096002F07C
:1043500041FB00214DF20A6002F03CFB81214DF24D
:104360000B6002F037FB00214DF20C6002F032FBD3
:10437000A6214DF20D6002F02DFB00214DF20E60E2
:1043800002F028FBE5214DF20F6002F023FB012132
:104390004DF2106002F01EFB13214DF2116002F08D
:1043A00019FB01214DF2126002F014FB54214DF271
:1043B000136002F00FFB01214DF2146002F00AFBC2
:1043C00082214DF2156002F005FB01214DF21660CD
:1043D00002F000FBCA214DF2176002F0FBFA022145
:1043E0004DF2186002F0F6FA00214DF2196002F069
:1043F000F1FA02214DF21A6002F0ECFA01214DF2BD
:104400001B6002F0E7FA02214DF21C6002F0E2FAB2
:1044100034214DF21D6002F0DDFA02214DF21E60E2
:1044200002F0D8FA67214DF21F6002F0D3FA0221A0
:104430004DF2206002F0CEFA84214DF2216002F0AC
:10444000C9FA02214DF2226002F0C4FAA4214DF211
:10445000236002F0BFFA02214DF2246002F0BAFAA2
:10446000B7214DF2256002F0B5FA02214DF2266027
:1044700002F0B0FACF214DF2276002F0ABFA022130
:104480004DF2286002F0A6FADE214DF2296002F01A
:10449000A1FA02214DF22A6002F09CFAF2214DF2BB
:1044A0002B6002F097FA02214DF22C6002F092FA92
:1044B000FE214DF22D6002F08DFA03214DF22E60A7
:1044C00002F088FA10214DF22F6002F083FA0321E6
:1044D0004DF2306002F07EFA33214DF2316002F08D
:1044E00079FA03214DF2326002F074FA6D214DF237
:1044F000336002F06FFA55214FF4704002F06AFA0F
:10450000AA214FF2010002F065FA52214FF2020097
:1045100002F060FA08214FF2030002F05BFA00217A
:104520004FF2040002F056FACC214FF4314002F071
:1045300051FA00214BF2011002F04CFA05214FF420
:10454000364002F047FA70214FF4374002F042FA49
:1045500070214BF2017002F03DFA01214FF4384016
:1045600002F038FA03214BF6010002F033FA03217E
:104570004BF6020002F02EFA03214BF6030002F084
:1045800029FA02214FF43C4002F024FA00214BF6B4
:10459000014002F01FFA00214BF6024002F01AFA25
:1045A000D0214FF4494002F015FA02214CF60110D7
:1045B00002F010FA50214CF6021002F00BFA5021D2
:1045C0004CF6031002F006FA50214CF6041002F0EB
:1045D00001FA00214FF4545002F0FCF955214FF438
:1045E000685002F0F7F94FF4885002F0D9F97820BA
:1045F00002F0AEFC4FF4245002F0D2F901F0DBBB24
:10460000FE48808849F2253188427DD147F6F00185
:10461000E52002F0DFF94FF48071012002F0DAF9B1
:104620004FF4E061022002F0D5F941F2300103209D
:1046300002F0D0F90021042002F0CCF940F202216E
:10464000082002F0C7F90021092002F0C3F9002177
:104650000A2002F0BFF900210C2002F0BBF9002172
:104660000D2002F0B7F900210F2002F0B3F900216C
:10467000102002F0AFF90721112002F0ABF9002160
:10468000122002F0A7F90021132002F0A3F9002163
:10469000072002F09FF941F29061102002F09AF990
:1046A00040F22721112002F095F99D21122002F0FD
:1046B00091F94FF4C851132002F08CF925212920DB
:1046C00002F088F90D212B2002F084F90721302017
:1046D00002F080F940F20331312002F07BF903212E
:1046E000322002F077F940F20621352002F072F90B
:1046F0000821362002F06EF940F20641372002F020
:1047000069F94FF4417100E058E0382002F062F995
:104710000721392002F05EF940F202613C2002F0EC
:1047200059F908213D2002F055F90021502002F0EE
:1047300051F9EF21512002F04DF90021522002F0F1
:1047400049F940F23F11532002F044F94FF4274158
:10475000602002F03FF90121612002F03BF90021C5
:104760006A2002F037F90021802002F033F900219D
:10477000812002F02FF90021822002F02BF9002184
:10478000832002F027F90021842002F023F9002180
:10479000852002F01FF91021902002F01BF94FF440
:1047A000C061922002F016F940F23311072002F0A6
:1047B00011F92221002002F00DF91FE78F488088AF
:1047C00049F2283188427DD141F28F01EC2002F07C
:1047D00001F941F23421EF2002F0FCF84FF480712E
:1047E000012002F0F7F84FF4E061022002F0F2F845
:1047F00041F23001032002F0EDF80021042002F024
:10480000E9F840F20221082002F0E4F80021092032
:1048100002F0E0F800210A2002F0DCF801210C206F
:1048200002F0D8F800210D2002F0D4F800210F206A
:1048300002F0D0F80021102002F0CCF8072111205E
:1048400002F0C8F80021122002F0C4F80021132061
:1048500002F0C0F80121072002F0BCF8322002F07B
:1048600059FB41F29041102002F0B4F840F22721A8
:10487000112002F0AFF8322002F04CFB8A21122006
:1048800002F0A8F8322002F045FB4FF4D05113207B
:1048900002F0A0F80621292002F09CF80D212B201F
:1048A00002F098F8322002F035FB0021202002F0BF
:1048B00091F80021212002F08DF8322002F02AFB2D
:1048C000002100E075E0302002F084F840F204613D
:1048D000312002F07FF840F20531322002F07AF800
:1048E0000021352002F076F840F60941362002F02A
:1048F00071F84FF40171372002F06CF840F2013189
:10490000382002F067F840F20771392002F062F8AF
:1049100000213C2002F05EF840F60A213D2002F022
:1049200059F8322002F0F6FA0021502002F052F835
:10493000EF21512002F04EF80021522002F04AF8F7
:1049400040F23F11532002F045F84FF42741602018
:1049500002F040F80121612002F03CF800216A20B9
:1049600002F038F80021802002F034F80021812084
:1049700002F030F80021822002F02CF80021832080
:1049800002F028F80021842002F024F8002185207C
:1049900002F020F81021902002F01CF84FF4C061C2
:1049A000922002F017F840F23311072002F012F8BB
:1049B00024E61248808849F2203188427ED10021C5
:1049C000084602F007F84FF48071012002F002F867
:1049D0004FF4E061022001F0FDFF41F230010320BD
:1049E00001F0F8FF0021042001F0F4FF40F2022161
:1049F000082001F0EFFF0021092001E010610020F4
:104A000001F0E8FF00210A2001F0E4FF01210C2061
:104A100001F0E0FF00210D2001F0DCFF00210F205C
:104A200001F0D8FF322002F075FA40F201110720A0
:104A300001F0D0FF322002F06DFA4FF486511020C1
:104A400001F0C8FF0721112001F0C4FF4FF4887165
:104A5000122001F0BFFF4FF43061132001F0BAFFC4
:104A60000021292001F0B6FF44F210012B2001F0B3
:104A7000B1FF0021502001F0ADFFEF21512001F0E6
:104A8000A9FF0021522001F0A5FF40F23F11532061
:104A900001F0A0FF4FF41C51602001F09BFF0121A9
:104AA000612001F097FF00216A2001F093FF0021AF
:104AB000802001F08FFF0021812000E030E001F034
:104AC00089FF0021822001F085FF0021832001F071
:104AD00081FF0021842001F07DFF0021852001F06D
:104AE00079FF1021902001F075FF0021922001F044
:104AF00071FF0121932001F06DFF4FF48871952023
:104B000001F068FF0021972001F064FF0021982048
:104B100001F060FF40F27311072001F05BFF6DE5CB
:104B2000FE48808849F2313188427DD141F214013A
:104B3000E72001F04FFF4FF48071012001F04AFFA0
:104B40004FF40071022001F045FF41F238010320CB
:104B500001F040FF40F20221082001F03BFF00215C
:104B6000092001F037FF00210A2001F033FF002166
:104B70000C2001F02FFF00210D2001F02BFF002160
:104B80000F2001F027FF0021102001F023FF072153
:104B9000112001F01FFF0021122001F01BFF002156
:104BA000132001F017FFC82002F0B4F941F2906120
:104BB000102001F00FFF40F22721112001F00AFF21
:104BC000322002F0A7F90C21122001F003FF32205D
:104BD00002F0A0F94FF40061132001F0FBFE112157
:104BE000292001F0F7FE0B212B2001F0F3FE3220EB
:104BF00002F090F90021202001F0ECFE40F23F117C
:104C0000212001F0E7FE0021302001F0E3FE4FF407
:104C10008371312001F0DEFE0021322001F0DAFE46
:104C20004FF40171352000E064E001F0D3FE41F261
:104C30000A61362001F0CEFE40F20771372001F004
:104C4000C9FE4FF48371382001F0C4FE40F20771B1
:104C5000392001F0BFFE40F202413C2001F0BAFED3
:104C600040F60F413D2001F0B5FE0021502001F03B
:104C7000B1FEEF21512001F0ADFE0021522001F0E4
:104C8000A9FE40F23F11532001F0A4FE4FF41C5145
:104C9000602001F09FFE0121612001F09BFE0021B8
:104CA0006A2001F097FE0021802001F093FE002190
:104CB000812001F08FFE0021822001F08BFE002177
:104CC000832001F087FE0021842001F083FE002173
:104CD000852001F07FFE1021902001F07BFE4FF433
:104CE000C061922001F076FE40F23311072001F0FE
:104CF00071FE83E48948808845F2084188427DD16D
:104D00004FF48071012001F065FE4FF4E061022054
:104D100001F060FE41F23001032001F05BFE002152
:104D2000042001F057FE40F20721082001F052FE56
:104D30000021092001F04EFE00210A2001F04AFE68
:104D400000210C2001F046FE00210D2001F042FE62
:104D500000210F2001F03EFE142002F0DBF841F2AA
:104D6000B061102001F036FE0121112001F032FE69
:104D70000121172001F02EFE4FF49C71122001F04A
:104D800029FE4FF40061132001F024FE092129209F
:104D900001F020FE09212A2001F01CFE0021A420A0
:104DA00001F018FE0021502001F014FEEF215120E7
:104DB00001F010FE0021522001F00CFE40F23F11E4
:104DC000532001F007FE4FF41C51602001F002FE59
:104DD0000121612001F0FEFD00216A2001F0FAFDB1
:104DE0000021802001F0F6FD0021812001F0F2FD7C
:104DF0000021822001F0EEFD002100E024E083206C
:104E000001F0E8FD0021842001F0E4FD002185206F
:104E100001F0E0FD1321902001F0DCFD0021922043
:104E200001F0D8FD0321932001F0D4FD4FF48871E7
:104E3000952001F0CFFD40F27311072001F0CAFD6B
:104E4000322002F067F8B8E43448808841F2055116
:104E500088427DD10021072001F0BCFD322002F004
:104E600059F84FF48E71122001F0B4FD0121A420F5
:104E700001F0B0FD0F21082001F0ACFD08210A204F
:104E800001F0A8FD08210D2001F0A4FD40F20771FA
:104E9000302001F09FFD0721312001F09BFD40F201
:104EA0000361322001F096FD4FF4E061332001F000
:104EB00091FD40F20221342001F08CFD02213520C9
:104EC00001F088FD41F60F71362001F083FD40F2BC
:104ED0000771372001F07EFD0021382001F07AFDB6
:104EE0000021392001F076FD40F207713A2001F0EF
:104EF00071FD00213B2001F06DFD07213C2001F0F8
:104F000069FD00213D2001F065FD322002F002F82C
:104F10000121072001F05EFD012101E01061002068
:104F2000172001F057FD322001F0F4FF4FF4BD517E
:104F3000102001F04FFD40F21721112001F04AFD31
:104F40004FF48F71122001F045FD4FF4706100E0C5
:104F500098E0132001F03EFD00212A2001F03AFDE7
:104F60000A21292001F036FD4FF49F71122001F033
:104F700031FD0021502001F02DFDEF21512001F0E5
:104F800029FD0021522001F025FD40F23F11532060
:104F900001F020FD4FF41C51602001F01BFD0121A8
:104FA000612001F017FD00216A2001F013FD0021AE
:104FB000802001F00FFD0021812001F00BFD002178
:104FC000822001F007FD0021832001F003FD002174
:104FD000842001F0FFFC0021852001F0FBFC13215F
:104FE000902001F0F7FC4FF44071922001F0F2FCA8
:104FF0000521932001F0EEFC0021952001F0EAFC50
:105000000021972001F0E6FC0021982001F0E2FC4D
:105010004FF48071012001F0DDFC4FF4E0610220CB
:1050200001F0D8FC41F23801032001F0D3FC00214B
:10503000042001F0CFFC00210C2001F0CBFC00216A
:105040000F2001F0C7FC0021202001F0C3FC00214B
:10505000212001F0BFFC2121072001F0BBFC14201E
:1050600001F058FF6121072001F0B4FC142001F089
:1050700051FF40F27311072001F0ACFC142001F045
:1050800049FF95E4FE4880884BF2055188427CD167
:105090000021084601F09EFC0021084601F09AFC20
:1050A0000021084601F096FC0021084601F092FC20
:1050B0000121A42001F08EFC142001F02BFF4FF4FD
:1050C0001C51602001F086FC40F20221082001F012
:1050D00081FC4FF40571302001F07CFC43F2157126
:1050E000312001F077FC40F20461322001F072FCC3
:1050F00040F61661332001F06DFC42F2112134209C
:1051000001F068FC4FF4A851352001F063FC48F22F
:105110000751362001F05EFC41F20741372001F0D3
:1051200059FC41F20341382001F054FC2021392080
:1051300001F050FC1A21902001F04CFC00211020BD
:1051400001F048FC0721112001F044FC002112204D
:1051500001F040FC0021132001F03CFC142001F080
:10516000D9FE4FF4E661102001F034FC40F2371113
:10517000112001F02FFC142001F0CCFE4FF4DC7163
:10518000122001F027FC142000E085E001F0C2FEAF
:105190004FF47061132001F01DFC80212A2001F0E2
:1051A00019FC4821292001F015FC142001F0B2FE61
:1051B0004FF48071012001F00DFC4FF4E0610220FA
:1051C00001F008FC41F23801032001F003FC40F239
:1051D0000221082001F0FEFB00210A2001F0FAFB69
:1051E00000210C2001F0F6FB00210D2001F0F2FB64
:1051F00030210E2001F0EEFB0021502001F0EAFBEF
:10520000EF21512001F0E6FB0021522001F0E2FBEA
:1052100040F23F11532001F0DDFB4FF41C516020A0
:1052200001F0D8FB0121612001F0D4FB00216A20AC
:1052300001F0D0FB1121902001F0CCFB4FF4C061B4
:10524000922001F0C7FB40F20241932001F0C2FB23
:105250000221942001F0BEFB142001F05BFE01212D
:10526000072001F0B7FB142001F054FE6121072054
:1052700001F0B0FB40F27311072001F0ABFB0021FD
:10528000202001F0A7FB0021212001F0A3FB222117
:10529000002001F09FFB42E4794880884CF20551E0
:1052A00088427CD10021084601F094FB0021084689
:1052B00001F090FB142001F02DFE0021084601F0C2
:1052C00089FB0021084601F085FB0021084601F01A
:1052D00081FB0021084601F07DFB0121A42001F0A3
:1052E00079FB142001F016FE4FF41C51602001F0F0
:1052F00071FB40F60601082001F06CFB40F20371DF
:10530000302001F067FB0121312001F063FB042113
:10531000322001F05FFB4FF48171332001F05AFB22
:105320004FF44071342001F055FB40F20311352059
:1053300001F050FB1F21362001F04CFB40F20371BD
:10534000372001F047FB0121382001F043FB042105
:10535000392001F03FFB1521902001F03BFB4FF479
:105360008261102001F036FB40F24721112001F04C
:1053700031FB4FF4DE71122001F02CFB4FF4606121
:10538000132001F027FB782001F0C4FD4FF4807159
:10539000012001F01FFB4FF40071022000E052E0F9
:1053A00001F018FB41F23001032001F013FB08214A
:1053B0000A2001F00FFB00210C2001F00BFB202143
:1053C0000E2001F007FB00210F2001F003FB00215C
:1053D000202001F0FFFA0021212001F0FBFA3D21FD
:1053E0002A2001F0F7FA142001F094FD2D21292044
:1053F00001F0F0FA0021502001F0ECFA4DF2EF013B
:10540000512001F0E7FA0021522001F0E3FA40F2C6
:105410003F11532001F0DEFA0021612001F0DAFA99
:1054200000216A2001F0D6FA4FF44071922001F079
:10543000D1FA0521932001F0CDFA4FF480710720B5
:1054400001F0C8FA55E40E48808848F68911884270
:105450007ED10121002001F0BDFA4AF6A40103200B
:1054600001F0B8FA00210C2001F0B4FA40F60C016A
:105470000D2001F0AFFA4FF42C510E2002E0000095
:105480001061002001F0A6FAB0211E2001F0A2FA5E
:1054900042F63F31012001F09DFA4FF4C061022035
:1054A00001F098FA0021102001F094FA46F27801F8
:1054B000112001F08FFA0021052001F08BFA002164
:1054C000062001F087FA4EF61C71162001F082FAD0
:1054D0000321172001F07EFA40F23321072001F06A
:1054E00079FA00210B2001F075FA00210F2001F05C
:1054F00071FA0021412001F06DFA0021422001F0F3
:1055000069FA0021482001F065FA40F23F11492074
:1055100001F060FA00214A2001F05CFA00214B20E2
:1055200001F058FA4FF46F41442001F053FA002182
:10553000452001F04FFA40F23F11462001F04AFAAF
:1055400040F20771302001F045FA4FF4017100E09C
:1055500040E0312001F03EFA4FF40171322001F0B9
:1055600039FA40F20251332001F034FA40F2075187
:10557000342001F02FFA4FF40171352001F02AFA9E
:105580004FF40171362001F025FA40F20251372024
:1055900001F020FA40F202313A2001F01BFA40F209
:1055A00002313B2001F016FA0021232001F012FA0B
:1055B0000021242001F00EFA4FF40041252001F0D3
:1055C00009FA00214F2001F005FA00214E2001F0D8
:1055D00001FAF0E3FE48808844F2315188427DD1DF
:1055E0000121002001F0F6F90A2001F093FC41F2BC
:1055F0002861102001F0EEF90E21122001F0EAF9E5
:1056000040F63921132001F0E5F90A2001F082FC6F
:105610004021112001F0DEF95021152001F0DAF9C6
:105620000A2001F077FC1E21122001F0D3F90A2094
:1056300001F070FC4FF4B151102001F0CBF942F6AB
:105640003921132001F0C6F90A2001F063FC4FF460
:105650008071012001F0BEF94FF44071022001F089
:10566000B9F941F23801032001F0B4F940F2022106
:10567000082001F0AFF908210A2001F0ABF9002160
:10568000302001F0A7F940F20241312001F0A2F9E7
:105690004FF48371322001F09DF940F20351332021
:1056A00001F098F94FF48271342001F093F940F23F
:1056B0000131352001F08EF940F20771362001F0FA
:1056C00089F940F20531372001F084F94FF4027175
:1056D000382001F07FF940F60B7100E03CE0392002
:1056E00001F078F90221412001F074F94FF41C51C6
:1056F000602001F06FF90121612001F06BF94FF496
:105700000471902001F066F94FF48571922001F048
:1057100061F90421932001F05DF94FF48071A0201C
:1057200001F058F90121072001F054F92121072047
:1057300001F050F92321072001F04CF93321072013
:1057400001F048F940F23311072001F043F900213C
:10575000A02001F03FF92EE39D48808844F23551A6
:1057600088427CD13021152001F034F910219A2093
:1057700001F030F92021112001F02CF943F22841E9
:10578000102001F027F90221122001F023F941F243
:105790003801132001F01EF9282001F0BBFB122173
:1057A000084601F017F9282001F0B4FB43F220412C
:1057B000102001F00FF943F23801132001F00AF92B
:1057C000462001F0A7FB0021302001F003F940F250
:1057D0000241312001F0FEF840F20731322001F0A1
:1057E000F9F84FF44171332001F0F4F8042134202A
:1057F00001F0F0F840F20141352001F0EBF840F201
:105800000771362001F0E6F840F20531372001F04B
:10581000E1F84FF4C261382001F0DCF84FF4C261C6
:10582000392001F0D7F84FF48071012001F0D2F84F
:105830004FF44071022001F0CDF841F23001032015
:1058400001F0C8F840F60801082001F0C3F808216B
:105850000A2001F0BFF84FF41C51602000E033E053
:1058600001F0B8F80121612001F0B4F84FF49F7104
:10587000902001F0AFF84FF48071922001F0AAF867
:105880004FF48071932001F0A5F84FF44051A0200F
:1058900001F0A0F81021A32001F09CF801210720BD
:1058A00001F098F82121072001F094F82321072026
:1058B00001F090F83321072001F08CF840F2331109
:1058C000072001F087F876E24148808841F66311AD
:1058D0008842F8D1E22001F063F84FF480703D492E
:1058E0000861400048611D203B490860802039491B
:1058F000486108618000086140100861400048610B
:1059000002203549086080203249486108618000E2
:105910000861401008614000486104202E49086079
:1059200080202C494861086180000861642001F0F2
:105930000FFBE02001F034F84FF480702549086136
:1059400040004861012024490860802021494861C5
:105950000861800008610A2001F0DCFAE02001F013
:105960001FF84FF480701B49086140004861032014
:105970001949086080201749486108618000086162
:105980000C2001F0C7FA012001F00AF80A2001F00A
:10599000C1FAE62001F004F84FF480700D49086167
:1059A000400048612F200C49086080200949486167
:1059B0000861800008614010086140004861FF20D4
:1059C000054908608020034948610861800005E0BE
:1059D00010610020001001400C0C014008614010D3
:1059E000086140004861FF20F84908608020F849BC
:1059F0004861086180000861B02000F0D1FF4FF4D9
:105A00008070F3490861400048612020EF49086038
:105A10008020EF49486108618000086140100861FA
:105A2000400048610020E94908608020E849486159
:105A3000086180000861401008614000486103204F
:105A4000E24908608020E2494861086180000861FD
:105A5000401008614000486140F21F30DB49086097
:105A60008020DB49486108618000086140100861BE
:105A7000400048610120D54908608020D449486130
:105A8000086180000861401008614000486140F2F0
:105A9000DF10CE4908608020CD4948610861800050
:105AA000086140100861400048610020C749086053
:105AB0008020C7494861086180000861B42000F077
:105AC0006FFF4FF48070C2490861400048610420B4
:105AD000BE4908608020BE494861086180000861B5
